:1000000016C098C097C096C095C094C093C092C0C7
:1000100091C090C08FC08EC08DC08CC08BC08AC074
:1000200089C088C087C00060007400013E001124B0
:100030001FBECFE5D4E0DEBFCDBFE6E2F0E040E09A
:1000400017C0B591A59135912591059107FD0CC07B
:1000500095918591EF01F92FE82F05900D92A21748
:10006000B307D9F7FE0104C01D92A217B307E1F749
:0E007000ED32F40731F703D056C0F894FFCFFD
:10007E00CF93DF93CDB7DEB764970FB6F894DEBF9C
:10008E000FBECDBF84E1E0E6F0E0DE0111960190F7
:10009E000D928A95E1F78FEF81BB84BB17BA80E092
:1000AE0090E020E030E062E051E0B09B03C00196AA
:1000BE00B099FECF8A30910524F02F5F3F4F80E03C
:1000CE0090E02A3031051CF0019620E030E065BB4F
:1000DE00F901EE0FFF1FA1E0B0E0AC0FBD1FEA0F5C
:1000EE00FB1F408142BBE7E8F3E13197F1F700C017
:1000FE00000055BBFC01EE0FFF1FA1E0B0E0AC0FFE
:10010E00BD1FEA0FFB1F408142BBE7E8F3E13197C9
:08011E00F1F700C00000C9CF99
:0E012600EC0107D005D0CE0105D0CE0104D0EB
:0201340065CF95
:0201360008952A
:02013800089528
:02013A00089526
:02013C009EDF44
:10013E003F0006005B004F0066006D007D0007006B
:04014E007F006F00BF
:00000001FF
