:1000000012C0B2C0B1C0B0C0AFC0AEC0ADC0ACC015
:10001000ABC0AAC0A9C0A8C0A7C0A6C0A5C0A4C0A4
:10002000A3C0A2C0A1C011241FBECFE5D4E0DEBF93
:0A003000CDBF03D08EC0F894FFCFBF
:10003A008FEF87BB60E875E280E090E065D081E6EB
:10004A008AD02FEF83ED90E3215080409040E1F772
:10005A0000C0000083E77FD02FEF83ED90E32150AB
:10006A0080409040E1F700C0000086E674D02FEF90
:10007A0083ED90E3215080409040E1F700C00000FA
:10008A0082E669D02FEF83ED90E3215080409040C3
:10009A00E1F700C000008AE75ED02FEF83ED90E31E
:1000AA00215080409040E1F700C0000088E753D01B
:1000BA002FEF83ED90E3215080409040E1F700C09C
:0400CA000000BDCFA6
:1000CE00A1E21A2EAA1BBB1BFD010DC0AA1FBB1F4E
:1000DE00EE1FFF1FA217B307E407F50720F0A21BC0
:1000EE00B30BE40BF50B661F771F881F991F1A942D
:1000FE0069F760957095809590959B01AC01BD0157
:04010E00CF01089580
:10011200DC01CB01880F991FAA1FBB1F880F991FF3
:10012200AA1FBB1F9C01AD01220F331F441F551F85
:1001320060E072E18AE790E0C9DF2150310929B914
:1001420030BD82E08BB988E18AB986E880BD089526
:0E015200EC010BD009D0CE0109D0CE0108D0AF
:080160008CB95E9BFECF0895EF
:020168004BCF7B
:02016A000895F6
:02016C000895F4
:02016E000895F2
:0201700062DF4C
:00000001FF
