:1000000012C043C042C041C040C03FC03EC03DC01E
:100010003CC03BC03AC039C038C037C036C035C01C
:1000200034C033C032C011241FBECFE5D4E0DEBFE0
:0A003000CDBF03D023C0F894FFCF2A
:10003A00BB9A85B5886685BD85B5826085BD80E039
:10004A0090E083BDE3ECF9E03197F1F700C00000DE
:10005A000196883EF3E09F07A1F788EE93E083BDFF
:10006A00E3ECF9E03197F1F700C000000197B8F727
:02007A00E6CFCF
:0E007C00EC0107D005D0CE0105D0CE0104D096
:02008A00BACFEB
:02008C000895D5
:02008E000895D3
:020090000895D1
:02009200D1DFBC
:00000001FF
