:1000000012C039C038C037C036C035C034C033C064
:1000100032C031C030C02FC02EC02DC02CC02BC06C
:100020002AC029C028C011241FBECFE5D4E0DEBFFE
:0A003000CDBF03D019C0F894FFCF34
:10003A008FEF84BB11BA38E024E092E081E0809B24
:10004A0002C085BBFCCF819B02C095BBF8CF829BC7
:0E005A0002C025BBF4CF839BF2CF35BBF0CFA5
:0E006800EC0107D005D0CE0105D0CE0104D0AA
:02007600C4CFF5
:020078000895E9
:02007A000895E7
:02007C000895E5
:02007E00DBDFC6
:00000001FF
