:1000000012C040C03FC03EC03DC03CC03BC03AC033
:1000100039C038C037C036C035C034C033C032C034
:1000200031C030C02FC011241FBECFE5D4E0DEBFE9
:0A003000CDBF03D020C0F894FFCF2D
:10003A008FEF81BB61E070E080E090E042B39B010A
:10004A00082E02C0220F331F0A94E2F7242722BB8C
:10005A002FE33DE043E0215030404040E1F700C04B
:0C006A00000001968830910549F7E6CFB0
:0E007600EC0107D005D0CE0105D0CE0104D09C
:02008400BDCFEE
:020086000895DB
:020088000895D9
:02008A000895D7
:02008C00D4DFBF
:00000001FF
