:1000000016C057C056C055C054C053C052C051C08E
:1000100050C04FC04EC04DC04CC04BC04AC049C07C
:1000200048C047C046C0006000700000BC001124FA
:100030001FBECFE5D4E0DEBFCDBFE6E2F0E040E09A
:1000400017C0B591A59135912591059107FD0CC07B
:1000500095918591EF01F92FE82F05900D92A21748
:10006000B307D9F7FE0104C01D92A217B307E1F749
:0E007000ED32F40731F703D015C0F894FFCF3E
:10007E008FEF81BB87BBA8E6B0E0E0E6F0E08C91A5
:10008E00809588BB808182BB89EF90E00197F1F764
:06009E0000C00000F4CFD9
:0E00A400EC0107D005D0CE0105D0CE0104D06E
:0200B200A6CFD7
:0200B4000895AD
:0200B6000895AB
:0200B8000895A9
:0200BA00DFDF86
:0800BC0081003C3C00003C3CCB
:0800C400010204081020408035
:00000001FF
