:100000000C942E000C9491000C9491000C9491008F
:100010000C9491000C9491000C9491000C9491001C
:100020000C9491000C9491000C9491000C9491000C
:100030000C9491000C9491000C9491000C949100FC
:100040000C9491000C9491000C9491000C949100EC
:100050000C949100006000800001300011241FBE4C
:10006000CFE5D4E0DEBFCDBFE4E5F0E040E017C06F
:10007000B591A59135912591059107FD0CC09591FC
:100080008591EF01F92FE82F05900D92A217B30784
:10009000D9F7FE0104C01D92A217B307E1F7EB35B3
:1000A000F40731F70E9458000C948600F894FFCFB3
:1000B0008FEF81BB87BB40E850E020E030E023C0F9
:1000C00080813296809588BB8D919D91022E02C0D1
:1000D000880F991F0A94E2F782BB89EF90E001979D
:1000E000F1F700C000004E175F0751F7615071092A
:1000F00029F0E0E7F0E0A0E6B0E0E2CF2F5F3F4F6D
:0C01000028303105D1F264E170E0F3CF4B
:10010C00EC010E9496000E949500CE010E9497007F
:06011C00CE010E949300D9
:040122000C94000039
:040126000E945600DD
:02012A00089536
:02012C00089534
:02012E00089532
:100130000C00120012001E0012001200120000003B
:1001400001000200040008001000200040008000B0
:00000001FF
