:1000000016C072C071C070C06FC06EC06DC06CC0D1
:100010006BC06AC069C068C067C066C065C064C0A4
:1000200063C062C061C0006000720000F200112471
:100030001FBECFE5D4E0DEBFCDBFE6E2F0E040E09A
:1000400017C0B591A59135912591059107FD0CC07B
:1000500095918591EF01F92FE82F05900D92A21748
:10006000B307D9F7FE0104C01D92A217B307E1F749
:0E007000ED32F40731F703D030C0F894FFCF23
:10007E00CF93DF93CDB7DEB762970FB6F894DEBF9E
:10008E000FBECDBF8FEF81BB14BA82E1E0E6F0E088
:10009E00DE01119601900D928A95E1F780E090E0D5
:1000AE00989B03C001969899FECF8930910514F064
:1000BE0080E090E0FC01EE0FFF1F21E030E02C0FFE
:0C00CE003D1FE20FF31F208122BBEACF90
:0E00DA00EC0107D005D0CE0105D0CE0104D038
:0200E8008BCFBC
:0200EA00089577
:0200EC00089575
:0200EE00089573
:0200F000C4DF6B
:1000F200000001000200040008001000200040007F
:0201020080007B
:00000001FF
