:1000000016C07FC07EC07DC07CC07BC07AC079C076
:1000100078C077C076C075C074C073C072C071C03C
:1000200070C06FC06EC00060007400010C0011242D
:100030001FBECFE5D4E0DEBFCDBFE6E2F0E040E09A
:1000400017C0B591A59135912591059107FD0CC07B
:1000500095918591EF01F92FE82F05900D92A21748
:10006000B307D9F7FE0104C01D92A217B307E1F749
:0E007000ED32F40731F703D03DC0F894FFCF16
:10007E00CF93DF93CDB7DEB764970FB6F894DEBF9C
:10008E000FBECDBF84E1E0E6F0E0DE0111960190F7
:10009E000D928A95E1F78FEF81BB84BB9E012B5E9B
:1000AE003F4F42E051E0DE0111961AC045BB8C91E4
:1000BE0082BB83ED90E30197F1F700C0000055BBC2
:1000CE008081329682BB83ED90E30197F1F700C0F9
:1000DE0000002E173F0751F712962A173B0719F308
:0600EE00FE013196E3CF94
:0E00F400EC0107D005D0CE0105D0CE0104D01E
:020102007ECFAE
:0201040008955C
:0201060008955A
:02010800089558
:02010A00B7DF5D
:10010C003F0006005B004F0066006D007D0007009D
:04011C007F006F00F1
:00000001FF
