:1000000012C0B4C0B3C0B2C0B1C0B0C0AFC0AEC007
:10001000ADC0ACC0ABC0AAC0A9C0A8C0A7C0A6C094
:10002000A5C0A4C0A3C011241FBECFE5D4E0DEBF8D
:0A003000CDBF76D094C0F894FFCF46
:0E003A0048656C6C6F20576F726C642021005B
:10004800982F907F92BBA89AA998AA9AEDEEF2E011
:100058003197F1F700C00000AA98EDEEF2E0319771
:10006800F1F700C00000F0E18F9FC001112482BBAE
:10007800A89AA998AA9A8DEE92E00197F1F700C084
:100088000000AA98EDEEF2E03197F1F700C0000009
:020098000895C9
:10009A00982F907F92BBA898A998AA9AEDEEF2E0C1
:1000AA003197F1F700C00000AA98EDEEF2E031971F
:1000BA00F1F700C00000F0E18F9FC001112482BB5C
:1000CA00A898A998AA9A8DEE92E00197F1F700C034
:1000DA000000AA98EDEEF2E03197F1F700C00000B7
:0200EA00089577
:1000EC00CF92DF92EF926B01E82EFB018491E7FC3B
:1000FC008081882359F09FEFC91AD90AE90A9EDF3B
:10010C00F6018491E7FC80818111F5CFEF90DF90AF
:04011C00CF900895E3
:100120008FEF81BB87E084BB0DD080E8B6DF6AE348
:1001300070E080E0DBDF87EA91E60197F1F700C02D
:040140000000F3CFF9
:1001440081E0A9DF82E0A7DF86E0A5DF88E2A3DF04
:0A0154008CE0A1DF80E89FDF089532
:0E015E00EC0107D005D0CE0105D0CE0104D0B3
:02016C0049CF79
:02016E000895F2
:020170000895F0
:020172000895EE
:0201740060DF4A
:00000001FF
