:1000000012C045C044C043C042C041C040C03FC010
:100010003EC03DC03CC03BC03AC039C038C037C00C
:1000200036C035C034C011241FBECFE5D4E0DEBFDA
:0A003000CDBF1AD025C0F894FFCF11
:10003A00AC011816190694F420E030E068EF87E066
:10004A0064BD85BD08B606FEFDCF14BC98B79064A2
:0E005A0098BF2F5F3F4F4217530791F708954D
:100068008FEF81BBCFEFC2BB81E090E0E2DF12BA35
:0800780081E090E0DEDFF7CF2C
:0E008000EC0107D005D0CE0105D0CE0104D092
:02008E00B8CFE9
:020090000895D1
:020092000895CF
:020094000895CD
:02009600CFDFBA
:00000001FF
