:1000000016C072C071C070C06FC06EC06DC06CC0D1
:100010006BC06AC069C068C067C066C065C064C0A4
:1000200063C062C061C0006000740000F20011246F
:100030001FBECFE5D4E0DEBFCDBFE6E2F0E040E09A
:1000400017C0B591A59135912591059107FD0CC07B
:1000500095918591EF01F92FE82F05900D92A21748
:10006000B307D9F7FE0104C01D92A217B307E1F749
:0E007000ED32F40731F703D030C0F894FFCF23
:10007E00CF93DF93CDB7DEB764970FB6F894DEBF9C
:10008E000FBECDBF84E1E0E6F0E0DE0111960190F7
:10009E000D928A95E1F78FEF81BB14BA80E090E064
:1000AE00989B03C001969899FECFFC01EE0FFF1F9F
:1000BE0021E030E02C0F3D1FE20FF31F208122BB09
:0C00CE008A3091056CF380E090E0EACFEE
:0E00DA00EC0107D005D0CE0105D0CE0104D038
:0200E8008BCFBC
:0200EA00089577
:0200EC00089575
:0200EE00089573
:0200F000C4DF6B
:1000F2003F0006005B004F0066006D007D000700B8
:040102007F006F000B
:00000001FF
