:1000000012C080C07FC07EC07DC07CC07BC07AC073
:1000100079C078C077C076C075C074C073C072C034
:1000200071C070C06FC011241FBECFE5D4E0DEBF29
:0A003000CDBF49D060C0F894FFCFA7
:0F003A0049324320536C61766520496E6974002A
:10004A00CF92DF92EF926B01E82EFB018491E7FCDD
:10005A008081882359F09FEFC91AD90AE90A0AD080
:10006A00F6018491E7FC80818111F5CFEF90DF9052
:04007A00CF90089586
:10007E0082BBA898A998AA9A8FE19EE40197F1F7FE
:10008E0000C00000AA988FE19EE40197F1F700C02E
:04009E0000000895C1
:1000A20082BBA89AA998AA9A8FE19EE40197F1F7D8
:1000B20000C00000AA988FE19EE40197F1F700C00A
:0400C200000008959D
:1000C6008FEF87BB97E094BB81BB07D080E8E6DF64
:0A00D6006AE370E080E0B6DFFFCFC0
:1000E00081E0DFDF82E0DDDF86E0DBDF88E3D9DF90
:0600F0008CE0D7DF08954B
:0E00F600EC0107D005D0CE0105D0CE0104D01C
:020104007DCFAD
:0201060008955A
:02010800089558
:02010A00089556
:02010C0094DF7E
:00000001FF
