:1000000012C044C043C042C041C040C03FC03EC017
:100010003DC03CC03BC03AC039C038C037C036C014
:1000200035C034C033C011241FBECFE5D4E0DEBFDD
:0A003000CDBF03D024C0F894FFCF29
:10003A00B99A8FB583688FBD8EB581608EBD80E019
:10004A0090E09BBD8ABDE3ECF9E03197F1F700C07F
:10005A0000000196883C9105A1F788EC90E09BBDD1
:10006A008ABDE3ECF9E03197F1F700C0000001978F
:04007A00B0F7E5CF27
:0E007E00EC0107D005D0CE0105D0CE0104D094
:02008C00B9CFEA
:02008E000895D3
:020090000895D1
:020092000895CF
:02009400D0DFBB
:00000001FF
