:1000000012C049C048C047C046C045C044C043C0F4
:1000100042C041C040C03FC03EC03DC03CC03BC0EC
:100020003AC039C038C011241FBECFE5D4E0DEBFCE
:0A003000CDBF1ED029C0F894FFCF09
:10003A00AC0118161906B4F420E030E068EF7FEF3F
:10004A0085E07DBD6CBD1FBC8EBD08B602FEFDCF2E
:10005A001DBC1CBC98B7946098BF2F5F3F4F4217D6
:06006A00530779F7089529
:100070008FEF81BBCFEFC2BB81E090E0DEDF12BA31
:0800800081E090E0DADFF7CF28
:0E008800EC0107D005D0CE0105D0CE0104D08A
:02009600B4CFE5
:020098000895C9
:02009A000895C7
:02009C000895C5
:02009E00CBDFB6
:00000001FF
