:1000000012C061C060C05FC05EC05DC05CC05BC04C
:100010005AC059C058C057C056C055C054C053C02C
:1000200052C051C050C011241FBECFE5D4E0DEBF86
:0A003000CDBF03D03DC0F894FFCF10
:10003A0041D0C4E91ED080E226D081E42CD0C6BFCC
:10004A002FEF89E698E1215080409040E1F700C007
:10005A0000000FD080E217D082E41DD0C6BF2FEF78
:10006A0089E698E1215080409040E1F700C0000005
:02007A00E1CFD4
:10007C0084EA86BF06B607FEFDCF81B1887F883043
:04008C00E1F70895FB
:1000900083B984E886BF81B1887F8831E1F708950C
:1000A00083B984E886BF81B1887F8832E1F70895FB
:0E00B000EC010BD009D0CE0109D0CE0108D052
:0800BE0010B88CE080B9089530
:0200C6009CCFCD
:0200C800089599
:0200CA00089597
:0200CC00089595
:0200CE00B3DF9E
:00000001FF
