:1000000016C0E3C0E2C0E1C0E0C0DFC0DEC0DDC0BA
:10001000DCC0DBC0DAC0D9C0D8C0D7C0D6C0D5C01C
:10002000D4C0D3C0D2C0006000740001D400112439
:100030001FBECFE5D4E0DEBFCDBFE6E2F0E040E09A
:1000400017C0B591A59135912591059107FD0CC07B
:1000500095918591EF01F92FE82F05900D92A21748
:10006000B307D9F7FE0104C01D92A217B307E1F749
:0E007000ED32F40731F703D0A1C0F894FFCFB2
:10007E00CF93DF93CDB7DEB764970FB6F894DEBF9C
:10008E000FBECDBF8FEF81BB84BB84E1E0E6F0E015
:10009E00DE01119601900D928A95E1F70EE01DE0BA
:1000AE00BBE0A7E020E030E07FC021303105A9F4AD
:1000BE004130510591F46530710561F48930910537
:1000CE0059F480E090E060E070E040E050E020E025
:1000DE0030E003C09A0101C09A0105BBF901EE0F91
:1000EE00FF1FEE24E394F12CEC0EFD1EEE0DFF1D12
:1000FE00E081E2BBE5EAFEE03197F1F700C00000D7
:10010E0015BBFA01EE0FFF1FEE24E394F12CEC0E5B
:10011E00FD1EEE0DFF1DE081E2BBE5EAFEE031972C
:10012E00F1F700C00000B5BBFB01EE0FFF1FEE2480
:10013E00E394F12CEC0EFD1EEE0DFF1DE081E2BBF3
:10014E00E5EAFEE03197F1F700C00000A5BBFC0127
:10015E00EE0FFF1FEE24E394F12CEC0EFD1EEE0DC0
:10016E00FF1DE081E2BBE5EAFEE03197F1F700C04A
:10017E00000001968A3091050CF497CF6F5F7F4F88
:10018E00663071051CF480E090E08FCF4F5F5F4FBB
:10019E004A3051051CF460E070E0F5CF2F5F3F4F01
:0E01AE00223031050CF07ECF40E050E0F4CF5F
:0E01BC00EC0107D005D0CE0105D0CE0104D055
:0201CA001ACF4A
:0201CC00089594
:0201CE00089592
:0201D000089590
:0201D20053DFF9
:1001D4003F0006005B004F0066006D007D000700D5
:0401E4007F006F0029
:00000001FF
